:100000006F001075130000001300000013000000C3
:100010001300000013000000130000001300000094
:100020001300000013000000130000001300000084
:08003000130000007300100032
:100038000000000000000000500700005407000006
:1000480000000000960E0000000000000000000004
:10005800980E00009A0E000000000000000000004A
:10006800541D000000000000000200000000000015
:10007800A00E0000A20E0000A40E0000A60E0000B4
:10008800A80E0000AA0E0000AC0E0000AE0E000084
:10009800B00E0000B20E0000B40E0000B60E000054
:1000A800B80E0000BA0E0000BC0E0000BE0E000024
:1000B800C00E0000C20E0000C40E0000C60E0000F4
:1000C800C80E0000CA0E0000CC0E0000CE0E0000C4
:1000D800D00E0000D20E0000D40E0000D60E000094
:1000E800D80E0000DA0E0000DC0E0000DE0E000064
:1000F800E00E0000E20E0000E40E0000E60E000034
:10010800E80E000056070000EC0E0000EE0E00009E
:10011800F00E0000F20E0000F40E0000F60E0000D3
:10012800F80E0000FA0E0000FC0E0000FE0E0000A3
:10013800000F0000020F0000040F0000060F00006F
:10014800080F00000A0F00000C0F00000E0F00003F
:10015800100F0000120F0000140F0000160F00000F
:10016800180F00001A0F00001C0F00001E0F0000DF
:10017800200F0000220F0000240F0000260F0000AF
:10018800280F00002A0F00002C0F00002E0F00007F
:10019800300F0000320F0000340F0000360F00004F
:1001A800380F00003A0F00003C0F00003E0F00001F
:1001B800400F0000420F0000440F0000460F0000EF
:1001C800480F00004A0F00004C0F00004E0F0000BF
:1001D8000000000000000000000000000000000017
:1001E8000000000000000000000000000000000007
:0801F8000000000000000000FF
:10020000130181F806C216C41AC61EC822CA26CC1B
:100210002ACE2ED032D236D43AD63ED842DA46DC76
:100220004ADECEC0D2C2D6C4DAC6DEC8E2CAE6CC46
:10023000EACEEED0F2D2F6D4FAD6FED8F3220030CF
:1002400096DA9702002083A222F023A02200F32551
:1002500010342EC09305000273A0458003A1818154
:10026000EF20807017030020032303EE0321030017
:10027000824273901234D652739002309240A2425E
:100280003243C2435244E244724582551256A2564A
:100290003257C2575258E25872598649164AA64AEE
:1002A000364BC64B564CE64C764D865D165EA65ECA
:1002B000365FC65F13018107730020301300000012
:1002C00013000000130000001300000013000000E2
:1002D00013000000130000001300000013000000D2
:1002E00013000000130000001300000013000000C2
:1002F00013000000130000001300000013000000B2
:1003000083A28181938202E073900234170100205E
:10031000032181E3024182403243C2435244E2441A
:10032000724582551256A2563257C2575258E25859
:1003300072598649164AA64A364BC64B564CE64C6D
:10034000764D865D165EA65E365FC65FD652A1020A
:1003500073900230A24213018107828013000000D3
:100360001300000013000000130000001300000041
:100370001300000013000000130000001300000031
:100380001300000013000000130000001300000021
:100390001300000013000000130000001300000011
:1003A0001300000013000000130000001300000001
:1003B00013000000130000001300000013000000F1
:1003C00013000000130000001300000013000000E1
:1003D00013000000130000001300000013000000D1
:1003E00013000000130000001300000013000000C1
:1003F00013000000130000001300000013000000B1
:10040000F322003093F272FF130380781203B3E2F9
:100410006200711523205500130585FA10C12115BE
:10042000232005009302000063870200711523203A
:100430000500FD12D5BF71150CC1828000000000BF
:1004400000000000000000000000000000000000AC
:10045000000000000000000000000000000000009C
:10046000000000000000000000000000000000008C
:10047000000000000000000000000000000000007C
:10048000000000000000000000000000000000006C
:10049000000000000000000000000000000000005C
:1004A000000000000000000000000000000000004C
:1004B000000000000000000000000000000000003C
:1004C000000000000000000000000000000000002C
:1004D000000000000000000000000000000000001C
:1004E000000000000000397101436EC619A0397187
:1004F00041536AC866CA62CC5ECE19A039710153F5
:100500005AD056D252D44ED64AD826DA22DC06DE4B
:1005100033016140828241114AC026C222C406C60C
:100520008282B24D4101024D924C224CB24B4101AC
:10053000024B924A224AB249410102499244224462
:10054000B240410182803D432A876373C30293779F
:10055000F700BDEFADE5937606FF3D8ABA960CC372
:100560004CC30CC74CC74107E36BD7FE11E2828036
:10057000B306C3408A069702000096966780A600DD
:100580002307B700A306B7002306B700A305B700EB
:100590002305B700A304B7002304B700A303B700E3
:1005A0002303B700A302B7002302B700A301B700DB
:1005B0002301B700A300B7002300B700828093F5A2
:1005C000F50F93968500D58D93960501D58D61B76E
:1005D000939627009702000096968682E78086FA17
:1005E0009680C1171D8F3E96E374C3F8A5B7EFF24E
:1005F000FFF05D71AA89AE8432898145130600023D
:10060000081836C63AC402C802CA02CC2D3F854536
:10061000254502CE02D002D202D402D6EF108025A8
:10062000854537050002EF10C026854537451D007A
:10063000EF00707293070020FC8037140140E147FF
:100640003ECC0C088D47130504C03ECAEF009063F2
:1006500093070010FC800C0893078004130504C066
:100660003ECCEF0030622247B24637650040054479
:100670000C18130505402309E1022318D102A2C278
:10068000A3093103230A2103A30A910202DC02DE3B
:1006900082C082C482C6EF00D014B7070600680883
:1006A0003ED022D22304810222D602CEEF00F021D6
:1006B0006161BDBDEFF29FE40111930700203EC6CA
:1006C000A147230BF1009377F500A30BF10093579B
:1006D0004540BD8B230CF10093578540BD8BA30C87
:1006E000F1009357C540BD8B230DF1009357054191
:1006F00051853D89B7640040BD8B230EA100A30E38
:10070000B100138504406C00231A0100A30DF10011
:10071000230F01000569EF00302AAA890144938460
:100720000440054A7D19CE852685EF00B034630B61
:1007300045016315240105450561DDBB050442043F
:100740004180D5B77D750505229513351500EDB7A8
:100750007300203001A0411122C6374401409305A7
:10076000505213050480EF10A0261DC51305048008
:10077000EF10E02437070020130707101423938796
:1007800016001CA3B70700209387071AB69788A303
:100790003244410173002030930540421305048028
:1007A000EF10002375D513050480EF104021B70723
:1007B00000200547A380E710B7070020238007101B
:1007C000C1BFEFF25FD541118545114502C202C498
:1007D00002C6EF10200A371401408D477C828D44F9
:1007E000C1474C00130504803EC626C4EF00904963
:1007F00091477C824C0093078004130504803EC619
:1008000026C4EF00304841010DBBEFF2DFD09387E3
:100810000190982723840700C1476319F7003745E3
:10082000000013050534EF20102101BBC547E31E6E
:10083000F7FE3745000013054535F5B7EFF23FCB1E
:10084000B714014093840480138401900D49C14979
:10085000130AB012930AC012130BD012C54B914564
:100860002685EF00304E5C400DE16369FA00850794
:100870005CC0613F1545EF200009D5B7E39B57FFEA
:100880002322640123047401EDB76374F900230487
:10089000340123220400F1BF1E2163F1E704EFF2CB
:1008A0009FC78507C207C1831EA163FAB70037152A
:1008B0000140894513050580EF00B049BDB9B295E7
:1008C00063DAB70037150140894513050580EF004D
:1008D0001048EDB7B695E3CCB7FCEDB72310050093
:1008E0008280EFF2BFC137140140370900208D4AE2
:1008F000B7040020130404800D4A8347491093096C
:100900004910638C57018945228523910410EF001B
:10091000104485452285EF0090431385241013076A
:10092000803E930600051306800293050005AD374F
:10093000054523804901EF10107DC1B7EFF21FBCC0
:1009400037090020B70400209309091A1384C190C5
:10095000370A002003C714108547631BF7020347BB
:10096000091AA3800410930700046313F702814758
:100970009306A00539A03306F400850718A293F763
:10098000F70F338737011823E317D7FEA30C0A109C
:100990001305401FEF10307775BFEFF25FB5B70951
:1009A000002037090020374A000093890900B70A60
:1009B000002083C7C190130700041384C19063947F
:1009C000E70A83479911130B9911B5EB37450000DE
:1009D0009385C19013050537EF20A0748947230044
:1009E000FB00854BDD4CB30774019C2385CF9387B7
:1009F000F7FBC207C183138C8A1163F7FC043745E8
:100A0000000013050539EF20100385472300FC0083
:100A1000130720038147B306F400238006008507EF
:100A2000E39BE7FE85472300FB0013072003814774
:100A3000B306F400238006008507E39BE7FE130559
:100A4000C012EF10506CB5B78A07CE978843A945FE
:100A500023000C0085311305C012850BEF10B06A1E
:100A600093FBFB0F49B71307F003E39AE7FC8347B7
:100A70009911130B9911E1F79385C19013050A3A67
:100A8000EF20206A89472300FB00854B130C0003ED
:100A9000B30774019C236390870385472300FB0001
:100AA000130720038147B306F4002380060085075F
:100AB000E39BE7FE69B79387F7FBC207C1838A0709
:100AC000CE9788439545850BF53613058025EF10A5
:100AD000906393FBFB0F6DBFEFF2FFA30945EF009F
:100AE000F034D52AEF20204FE93971651305052030
:100AF0005524892601479146214685450145C53C37
:100B0000B707002083A5070E374500001305C53B36
:100B1000EF202061EF00207CAA85374500001305F7
:100B2000C53CEF200060B7450000374500009385C5
:100B3000C53D1305453EEF20C05EB7070020B74511
:100B40000000371500009387C7101547814613062C
:100B50000004938545401305258EEF10C07EB7072E
:100B60000020B74500003715000093878710154710
:100B7000814613060004938505411305C583EF10D4
:100B8000807CB7070020B745000037150000938729
:100B9000071115478146130600089385C5411305C3
:100BA000A599EF10407AB7070020B7450000371528
:100BB0000000938747111547814613060008938567
:100BC00085421305C593EF100078EF1010183744D5
:100BD000000013058443EF200066E5BFB71702400D
:100BE0009843B706FFF841111367170098C3D8431D
:100BF00037060200758FD8C39843B706F7FEFD1677
:100C0000758F98C39843B706FCFFFD16758F98C380
:100C1000D843B70681FFFD16758FD8C39843B70632
:100C200000ECFD16758F98C33707FF0098C723A601
:100C3000070202C402C69843C166558F98C3B7160F
:100C4000024005679C42F18F3EC6A24785073EC41D
:100C5000B24781E7A247E397E7FEB71702409C43FC
:100C60001397E7006357070685473EC63247854717
:100C7000631FF704B7170240D843B706C1FFFD163C
:100C8000D8C3D843D8C3D84313670740D8C3D84381
:100C9000758FD8C3D843B7062900558FD8C398435A
:100CA000B7060001558F98C3984393166700E3DD9C
:100CB00006FED843B7160240719BD8C3D8431367CA
:100CC0002700D8C32147DC42B18BE39EE7FE4101F8
:100CD000828002C661BF371602405C42370700209F
:100CE0009146B18B1307070E6385D700A146638831
:100CF000D702B7177A00938707201CC3B7170240A3
:100D0000DC43918393F6F700B7070020938707062B
:100D1000B69794231C43B3D7D7001CC38280544298
:100D20005042C167C982BD8A7D8E9387260085CADD
:100D3000BD466389D702C1466389D702C54581464E
:100D40006393B700C1470DE637460240032606808D
:100D5000418A15C637167A00130606202DA0814653
:100D6000C947D5B78546B547F9BF8146BD47E1BFFD
:100D70003716024050429315E600E3DD05FC3716B6
:100D80003D0013060690B387C7021CC3A5DA1C43B7
:100D90008583A5B7EFF22FF82A891165797185450A
:100DA000110502C602C8EF00F02C3714014093076A
:100DB0000020FC828D44E1474C081305048026CCBA
:100DC0003ECEC92593070040FC824C08914713058D
:100DD000048026CC374401403ECE6D25B7070C0079
:100DE0000C10130504803ED44AD002D2231601020F
:100DF000EF00102C13050480054693054042EF00D8
:100E0000303805469305505213050480EF005037E3
:100E1000930750137C8685475C87680085473EC8EA
:100E2000EF007001854513050480EF001034456123
:100E30006FF0AFF0EFF22FEE79711306C00281452B
:100E40004800EFF04FF085450545EF00D02037040E
:100E50000240130584056921B74700409387474046
:100E60003EC2B70700209387C7113EC4930700080E
:100E70003EC83ECC4C008D67130584053ED402C6A7
:100E800002CA02CE02D002D202D6C92345616FF057
:100E9000CFEA01A001A001A001A001A001A001A032
:100EA00001A001A001A001A001A001A001A001A03A
:100EB00001A001A001A001A001A001A001A001A02A
:100EC00001A001A001A001A001A001A001A001A01A
:100ED00001A001A001A001A001A001A001A001A00A
:100EE00001A001A001A001A001A001A001A001A0FA
:100EF00001A001A001A001A001A001A001A001A0EA
:100F000001A001A001A001A001A001A001A001A0D9
:100F100001A001A001A001A001A001A001A001A0C9
:100F200001A001A001A001A001A001A001A001A0B9
:100F300001A001A001A001A001A001A001A001A0A9
:100F400001A001A001A001A001A001A001A001A099
:100F50009701002093810199177100201301810AE4
:100F6000173500001305C56797F5FF1F93858509A1
:100F70001386018263FAC5008322050023A0550071
:100F800011059105E3EAC5FE17F5FF1F1305851747
:100F9000972500209385C54B6377B5002320050076
:100FA0001105E36DB5FEFD42739002BCFD427390E6
:100FB0004280B78200009382028073A0023097F2D1
:100FC000FFFF9382A20793E2320073905230EFF05A
:100FD000FFC097020000938262B0739012347300D6
:100FE00020301841AA87759B18C118411367170054
:100FF00018C14167D443858A99E27D1765FFD843BC
:101000000145058B49CF94450547639BE608984306
:1010100013670708D44598C305476397E6089843C4
:1010200013670704944998C305476393E6089843F8
:1010300013670702D44998C30547639FE6069843A0
:1010400013670701944D98C30547639AE6069843D2
:1010500013678700D44D98C305476395E606984308
:101060001367470098C3B821B4317A07E206558F59
:10107000D421C206558FD431D206558F9621FD1644
:10108000558FD8CF9843799B98C34167D443858ABD
:1010900099C27D1765FFC8431345F5FF0589828016
:1010A00098431377F7F7BDB798431377F7FB9DBFC6
:1010B00098431377F7FDBDBF98433D9B61B79843B5
:1010C0005D9B49BF98436D9B71BF37670040130715
:1010D0000740832607203C25054893E61600232079
:1010E000D7208325C7213316F8009346F6FFF58DE8
:1010F000232EB7204C25BDED8325C720035825009E
:101100008E07F58D2326B7206E21BA975A21C20586
:10111000B3E5050123A0B7240E2142074D8F23A27A
:10112000E7243835B7670040938707402DEB03A7C6
:101130004720758F23A2E7201A25B76700409387C1
:10114000074035E303A74721F98E23AAD720184982
:1011500085476319F700B767004003A7C761598E39
:1011600023AEC760B767004003A70760799B23A041
:10117000E7608280E39705FB8325C720035825009D
:101180008E07D18D2326B7200E21BA975A21C2058A
:10119000B3E5050123A0B72442076E2141B703A799
:1011A0004720518F41BF8546E313D7FA03A7472154
:1011B000518F23AAE72061BF1C4513975700634E48
:1011C00007081C4513974700634B07081C459146C9
:1011D0001397370063510708894693974600AA97EB
:1011E00003A70718058B23A0E7189025883535EA53
:1011F000984103A607185607498F518F23A0E71877
:10120000B8253D8BB8A503A64718419A23A2C71855
:1012100003A64718518F23A2E718D025B835220618
:10122000598ED8354207598EF8256207518F23A46D
:10123000E7189029F8352206598E98394207598EB9
:10124000B8296207518F23A6E71803A70718136769
:10125000170023A0E718368582808146BDBF8546EA
:10126000ADBFD84103A807180E07498F518F3367C8
:10127000070169B785476389F50291C58947638B83
:10128000F502094582801C45370500040D05370726
:101290000004E98F0D070545638EE7026360F702DE
:1012A00013B51700060582801C4537050008130595
:1012B0000530F1BF1C4537050310D1BF37070008C3
:1012C0001307073005456387E70037050310898F4B
:1012D00013B517008280B7F7FF1F03A54770828000
:1012E0001C4141677917F98F1CC123200500232277
:1012F000050023240500B7070240232605001387B5
:1013000087006317E500D8431367F700D8C38280CE
:101310001387C7016316E500D8431367070FFDB7AE
:10132000138707036318E500D8438566938606F0A4
:10133000558FE9BF138747046315E500D843BD66A1
:10134000C5BF138787056316E500D843B7060F00AE
:10135000C5B71387C7066316E500D843B706F00084
:10136000C1BF138707086316E500D843B706000F0F
:10137000C1B7138787406319E50003A74740136788
:10138000F70023A2E74082801387C7416317E50077
:1013900003A747401367070FEDB793870743631B06
:1013A000F500B707024003A747408566938606F01D
:1013B000558FC1BFB7070240138747446316E50046
:1013C00003A74740BD66EDB7138787456317E50060
:1013D00003A74740B7060F00E1BF1387C74663174F
:1013E000E50003A74740B706F000D9B713870748C1
:1013F0006317E50003A74740B706000F55BF1387E3
:1014000007496319E50003A7474D1367F70023AAAF
:10141000E74C82801387074A6317E50003A7474D0F
:101420001367070FEDB71387074B6319E50003A791
:10143000474D8566938606F0558FD1BF1387074CBD
:10144000E319E5FC03A7474DBD66FDB71C41617775
:101450003D0794517D8F9C45D58F9449D58FD449B4
:10146000D58F944DD58FD44DD58FD451D58F9455DC
:10147000D58FD98F1CC1DC455CC19C411CC5DC41AA
:101480005CC582809C4513F7070113F8F70001C77C
:10149000D8413368E8008E2113F7F50F39C318419E
:1014A0008146854E3D4F930F800293028004214E6A
:1014B0003396DE00B3F8C500631116039398260037
:1014C00033131F011343F3FF3377E300B3181801FD
:1014D00033E7E800639FF70550C98506E39AC6FD28
:1014E00018C11307F00F6375B70454412146854EA8
:1014F0003D4F930F800293028004414EB398CE007B
:1015000033F715016392E80213172600011733130E
:10151000EF001343F3FFB376D3003317E800D98EFF
:10152000639DF701232A15010506E319C6FD54C181
:101530008280E39457FA10C94DB7E39757FE2328EA
:101540001501DDB708456D8D3335A00082800CC9CB
:1015500082804CC98280B7070140635A0504DC4F82
:1015600093560501131805013707300013F6F600EE
:1015700013580801B376E50063500506639BE60245
:10158000930606010D46B316D60093C6F6FFF58FF7
:1015900099C9135755011377F73F12073317E8001E
:1015A000D98F63570504370701405CCF8280DC4345
:1015B00045BF1317B500635607008D46B396C600A6
:1015C000E9B7135755011377F73F12073317E800B0
:1015D0001347F7FFF98F6DBF6390E60237060140AE
:1015E0005442370700F17D17F98F758F58C2D5F136
:1015F000370701405CC382801317B500635C0700A6
:101600008D46B396C60093C6F6FFFD8EB707000F52
:10161000D58FF1BF1357550112073317E800134751
:10162000F7FF7D8FB707000FD98FD1B7B70700201D
:1016300023A0A7128280B707002093870712944344
:10164000182181E63C21920721A894430546639F17
:10165000C6023C21103192076314D60093E707F8C5
:10166000B7E600E093F7F70FBA962380F640854679
:10167000935757003397E6005441A5C29387070458
:101680008A07B7E600E0B69798C382808C43894604
:101690006391D50214313C216365D6008A06B69762
:1016A0005DB79386E6038A06B69793F7F70F92071E
:1016B00075B790438D46631CD60014313C2163649A
:1016C000D6008606E9BF9386C6078606F1BF944317
:1016D0009147E39EF6F81C31BDB7938707064DB7D7
:1016E000371702405C439146B18B6385D700A14612
:1016F0006382D706B7177A00938707201CC1371675
:1017000002405C4237070020130707079183BD8B17
:10171000BA9794231C41B3D7D7005CC15442A1822D
:101720009D8ABA969422B3D6D70014C55442AD828E
:101730009D8A36971823B3D7E7005CC55842398392
:10174000937637001387418036971823B3D7E70283
:101750001CC982805C435843C166C983758FB7F644
:10176000FF1F83A6C670BD8B8907139616016348B9
:101770000600C54601466392D702C94739A8894683
:10178000638FD702BD46638ED702C146638ED702F0
:10179000C54601466393D700C1471DEF3747024056
:1017A00003270780418B05C737177A0013070720E7
:1017B000B307F7021CC121D61C41858381B70146BE
:1017C0006DBF0546B547D1BF0146BD47F9B73717CD
:1017D0003D0013070790E9BFB7150240D85593168F
:1017E000F700D85563DF060411833D8B930617007D
:1017F00037177A00130707203357D70218C1D4557B
:10180000A182BD8A8DE295463307D702058318C1B0
:1018100037170240585714413D8B050733D7E6026E
:1018200018C1184171B785456394B600E546E9BF14
:10183000BD456396B600D1463387E602C9BF890627
:10184000E5BF3D8B9306170037177A001307072073
:101850003357D702F1B799C5371702405C4B5D8DFE
:1018600048CB8280B7170240D84B1345F5FF798DDE
:10187000C8CB828099C5371702401C4F5D8D08CFB9
:101880008280B7170240984F1345F5FF798D88CFB6
:10189000828099C5371702405C4F5D8D48CF8280AA
:1018A000B7170240D84F1345F5FF798DC8CF828016
:1018B000EFE27FC61629F577FD17F58FF621DA25B9
:1018C0007971D58F1EA95625FD779387379FF58FA0
:1018D000D6212A842EC6D58F9625D58FB625D58FAD
:1018E0005EA55E29C207C18393F7F7CFD98F5EA9A2
:1018F0006808FD33B747014093870780B245631AF4
:10190000F404A25756246547B387E702C206C1868E
:10191000984163D20604060752244206B3D7E70271
:10192000130740064186B3D6E702B3F7E7029206F3
:10193000635506028E0793872703B3D7E70213F791
:101940007700B367D700C207C1831EA445616FE06B
:10195000DFBE925745BF0A07C1B792079387270397
:10196000B3D7E702BD8BD58FF9BF91C55E25096757
:10197000D98F5EA582805A25F977FD17F98FD5BFDB
:1019800013F7F50F85471583B395B7006319F70073
:101990009307C500984301CED98D8CC382808946B8
:1019A00093074501E318D7FE93070501E5B793C5F3
:1019B000F5FFF98DDDB793F5F51F4EA182804A2121
:1019C0001375F51F82800A216D8D3335A00082804A
:1019D00013F7F50F85461583B397B6006311D70249
:1019E0005A25F98F1A2101454207418381CB0545CC
:1019F000A181B315B5006D8F3335E0008280894633
:101A00006314D7001A29F1BF5A29E1BFB707002094
:101A10009387C7139843636FA702D043B386C70069
:101A20006316D50054413E85B296D4C35041B306E7
:101A3000C500631CD700B706002083A646126306C4
:101A4000D70054431843B29654C118C16303F5003C
:101A500088C38280BA877DBFEFE25FAA41112AC6A0
:101A6000EF00B037B706002083A7461237060020E4
:101A700093864612130686123245A1EF37070020DF
:101A80009307072593F5F7001307072581C51387EB
:101A9000F700419BB70500209385C51323A20500DD
:101AA00098C18D65C115AE97C19B23A2070023A0E5
:101AB0000700B385E7409CC21CC3B707002023A8DA
:101AC000B712B707002023A6B712B70700804CC390
:101AD0001CC2032A0600B377AA0085E39307F5FF2B
:101AE0003957636CF7009307050113F7F70041C3FB
:101AF00013F707FF410763EBE706814489A02287BC
:101B00002E8461A058C15CC011375840B706002030
:101B1000938606139042B307E94023A0F90063F3CC
:101B2000C7009CC2B70700203367EA0093874713BA
:101B300058C09843C10423200400050798C3EF0050
:101B4000304693F7F400D1CBA16793870780739059
:101B50000730374600003745000013060645930559
:101B6000001113058547EF10C05B01A0BA87370746
:101B700000200329C7129309C712E360F9F8370759
:101B800000200324C7131307C71350406374F600E3
:101B90000C40B5F59442E38286F61440044314C326
:101BA0003307F64093060002E3F1E6F63305F4004E
:101BB0009376F500A1DAA1679387078073900730C9
:101BC0003746000037450000130606459305F00C24
:101BD00013058547EF10E05401A0268541016FE011
:101BE0003F9555C1EFE23F93B7070020032745FF1C
:101BF00083A787122A84B376F7009DE2A1679387B3
:101C00000780739007303746000037450000130601
:101C100006459305401213058547EF10805001A03B
:101C2000832605FF9DC2A1679387078073900730C5
:101C3000374600003745000013060645930550124D
:101C400013058547EF10E04D01A093C7F7FFF98F0B
:101C5000232AF5FEEF007018B70700209387C712FC
:101C60009443032744FF130504FF369798C3793B39
:101C7000B7070020938787139843050798C3EF00A1
:101C800030326FE09F8B8280B7E700E041572387B7
:101C9000E7402386E740B7F700E023A0070023A230
:101CA0000700814694C70147D8C73707002083251E
:101CB000070E1307401F814633D6E5023D4790CB00
:101CC000D4CB98C38280EFE21F85411102C6F3276F
:101CD00050303EC6B2470D478D8B6384E702A16743
:101CE0009387078073900730374600003745000020
:101CF0001306C6499305600B13058547EF10604234
:101D000001A0B787002093870700BD8B9DC3A16703
:101D100093870780739007303746000037450000EF
:101D20001306C6499305B00B13058547EF10603FB6
:101D300001A0993FB7E700E0056723A0E71011670E
:101D400023A0E71023A40180EFE08FDB01454101D0
:101D50006FE0AFFE73110134A16793870780739022
:101D60000730B7F700E023A20700EF00B00811C565
:101D7000B7E700E0116723A0E720A1679387878872
:101D8000739007307311013473002030A16793877B
:101D9000078073900730938781809843050798C325
:101DA0008280138781801C438DE7EFE2CFF6A16725
:101DB000938707807390073037460000374500004F
:101DC0001306C6499305201013058547EF106035AB
:101DD00001A0FD171CC391E7A167938787887390C3
:101DE00007308280930785007D575CC118C55CC5AC
:101DF0001CC9232005008280232805008280984189
:101E0000FD5693078500631ED7001C49D843D8C1EF
:101E10000CC79CC5CCC31C4188C985071CC18280E6
:101E2000B687D4439042E37DC7FECDB754411845F1
:101E30001C4998C654C3D4436393A600D8C398439F
:101E4000232805007D1798C388438280EFE2AFEC1A
:101E500041112AC6253F3245005DA13713351400D4
:101E600041016FE08FED304115C2EFE2CFEA5845F6
:101E70001445AA87329758C56364D700184158C5DE
:101E80002E85CC47EF10C01E6FE02FEB8280EFE273
:101E90008FE82A84E53D8344540413094402E20494
:101EA000E18463459002FD57A302F404DD3DF93D52
:101EB0008344440413090401E204E184634490026E
:101EC000FD572302F404F13D6FE02FE75C50E1DFA2
:101ED0004A85EF00D03E19C1EF00B05AFD14E2046C
:101EE000E184C1B71C48E9DF4A85EF00503D19C1C4
:101EF000EF003059FD14E204E184C9B7EFE2AFE12D
:101F000041111DE1A1679387078073900730374621
:101F10000000374500001306464C930500111305D9
:101F20008547EF10002001A05C5D2EC62A84BDC34A
:101F30003841B3B7E702B9EF913D3040585C1440E7
:101F4000232C0402B307E602B24554C03387F600DF
:101F5000918FB6975CC4FD572302F40418C4A30202
:101F6000F40495E11C4899CB13050401EF003035CA
:101F700011C5B7E700E0116723A0E7201D3505452F
:101F800041016FE08FDB13050401A93D13054402F5
:101F9000913DEDB7A167938707807390073037466F
:101FA0000000374500001306464C930550141305F6
:101FB0008547EF10001701A0EFE2EFD5411129C1CD
:101FC000B3B7A502AA848DEF3305B502930770FB62
:101FD00063E8A702130585042EC6EFF0FFA72A8445
:101FE00001CDB245AA8799C1930785042CC01CC0B6
:101FF00044DC854522851937228541016FE0EFD306
:10200000A1679387078073900730374600003745F4
:1020100000001306464C9305601C13058547EF101E
:10202000401001A0EFE2AFCC011132C61DE1A16763
:1020300093870780739007303746000037450000CC
:102040001306464C9305105513058547EF10600D98
:1020500001A02A84AE898DE53C419DC3A167938789
:10206000078073900730374600003745000013069D
:10207000464C9305505513058547EF10800A01A083
:10208000EF00F04015E5B247014985C7A167938786
:10209000078073900730374600003745000013066D
:1020A000464C9305A05513058547EF10800701A006
:1020B00001497D5A930A440237EB00E0916B95A0E9
:1020C000B24781E7F939014559A06315090028088D
:1020D000EF00902DF9311123553983474404E2076D
:1020E000E187639447012302040483475404E20711
:1020F000E18763944701A302040465316C0028085A
:10210000EF00F02B21ED2285913329C5B24556858C
:10211000EF00300F2285A53B612519E123207B21AB
:102120000549AD31045CC9DCCE852285FD14253B13
:1021300004DC1C4899CB13050401EF00501811C5AD
:10214000B7E700E0116723A0E720A1390545056145
:102150006FE06FBD2285253BA125D9B72285053BC0
:1021600081252285E5314DDDB9BF15E5EFE2AFBA36
:10217000A167938707807390073037460000856515
:10218000374500001306464C938585AC13058547FB
:10219000EF00307901A09DCD37360020930606254B
:1021A0008147014713060625214883A84600639806
:1021B000A80093173700B2978CC3C8C321A891E732
:1021C00083A8060063930800B6870507A106E31EEF
:1021D00007FDFDF38280EFE20FB441112A842EC681
:1021E00032C46D36834744047D572246E207E187B7
:1021F000B2456394E70023020404834754047D57E7
:10220000E207E1876394E700A302040432C62EC408
:10221000493E1C5CA245324689E713054402EF00A3
:10222000D0022285AD3141016FE02FB13707002088
:10223000130787141C439443B7070020938787161E
:1022400081E67D5798C38280184358471843DDBF05
:10225000EFE2CFAA37090020B70700209304491402
:1022600083A987172A849C4088404111A3880704CA
:1022700011052EC6653E7D5793074914B245631C70
:10228000E40295C9B73700209387873F9440D8432D
:1022900098C610479440D0C694401047910654C247
:1022A0009440910614C798405CCB9843050798C3A7
:1022B00041016FE0EFA798434E9440C3637B340124
:1022C000370700200325C7148C439105EFF03FB377
:1022D000C5B737070020032587148C439105EFF01D
:1022E0001FB2B7070020938787169843E372E4FC78
:1022F00080C37DBFEFE28FA037340020B7090020F4
:102300001304C440370A0020938449159C40EDDF34
:10231000EFF0DFA75C4403A9C70013054900EFF005
:10232000FFB013070A151C43FD171CC39C40FD1783
:102330009CC0EFF01FA703250903EFF09F8A4A8591
:10234000EFF03F8AD1B7EFE28F9A13192600AA8ADD
:102350004A852E8A368BBA8BBE89EFF0EFEF1DC10E
:10236000AA8413054005EFF02FEF2A8409C904D988
:102370008147C146631A0A00230A050225A0268563
:10238000EFF03F867D5565A23307FA00030707008B
:102390003306F400230AE60201C78507E396D7FE59
:1023A000A3010404B94763F47703A1679387078007
:1023B0007390073037460000374500001306864DFE
:1023C0009305703913058547EF00B05501A0130A36
:1023D0004400528523267403232274052324040415
:1023E000EFF09FA113058401EFF01FA13D471305F6
:1023F000C9FF33077741269500C818CC40D0230683
:102400000404A306040423070404A3070404230804
:102410000404A30804045A86D6854199EFD05FFED0
:1024200008C06384090023A08900EFF03F96B70736
:102430000020938707159843B7040020B739002080
:10244000050798C3138744141843938444141389CD
:1024500009296310070E80C0984385476316F70665
:1024600093890929930AC9124E85D109EFF09F97E4
:10247000E39C3AFF37350020930AC53B1305C53B63
:10248000EFF05F96373500209309053D1305053DB4
:10249000EFF05F95373500201305453EEFF09F9430
:1024A000373500201305C540EFF0DF9337350020A6
:1024B0001305853FEFF01F93B707002023A457159E
:1024C000B707002023A63715B70700209387C71545
:1024D0009843050798C337070020130707165C5475
:1024E000144363F3F6001CC35147B387E702CA974E
:1024F000D843144718C454C4144723A246012324C4
:10250000470198435CC8050798C3EFF09F89B70758
:10251000002083A74717054599CB9C40D8575C54AA
:102520006377F700B7E700E0116723A0E7206FD0DB
:102530009FFFB707002083A74717D9F79C40D857BC
:102540005C54E3E3E7F880C041B7EFD2DFFCB707A4
:102550000020B74500003725000093874716014744
:102560008146130600109385C54E1305452FE13BA8
:102570000544631E8502EF005020631A8502A1679F
:102580009387078073900730B70700207D5723A4F7
:10259000E716B707002023AAA716B707002023AC29
:1025A0000716EFF04FF283A7C1806FD01FF9FD57D8
:1025B000E31BF5FEA16793870780739007303746CA
:1025C00000008565374500001306864D9385058418
:1025D00013058547EF00F03401A0B707002093876B
:1025E00087159843050798C38280B707002003A585
:1025F00087178280B707002083A78715639907187C
:10260000EFD27FF1B7070020938787178043050437
:1026100080C321ECB70700209387871498431843A1
:1026200005C7A1679387078073900730374600007E
:102630008565374500001306864D938575AC1305F7
:102640008547EF00102E01A0370700201307C7149D
:102650009443104390C3B707002014C39387C71651
:102660009843050798C3EFF07FBC37060020930717
:1026700086169C4337370020B705002013068616C0
:10268000130707299385451401456375F4029C419E
:10269000D146DC57B387D7023E971843854763F38B
:1026A000E7000545B707002083A7C71791C3054575
:1026B0006FD0BFE8370E0020B70E0020514F9307B0
:1026C0008E149443944281E6FD571CC2C9B79C43C3
:1026D000DC47DC47D4436374D40014C24DBF83A8E5
:1026E000870003A8C700D44B1383470023A4080125
:1026F0002322180183A846006394680023A20601E0
:1027000003A8060023AA07007D1823A006019457FA
:1027100095CA03A8C70183A8070283AF46002324F4
:10272000180183A8070223A2080113888701639474
:102730000F0123A2160103A8060023A407027D1897
:1027400023A0060193860E1603A8C70283A80600DD
:1027500063F4080123A00601B306E803BA9683A830
:10276000460083AF880023A4170123A6F70183AF97
:10277000880023A26F0023A46800D4CB9C42850765
:102780009CC29C41DC57E36CF8F205450DBFB707CE
:1027900000209387071798430145050798C3828057
:1027A000EFD2DFD537040020130484151C404111FB
:1027B00085E7A1679387078073900730374600004D
:1027C0008565374500001306864D9385358B1305C7
:1027D0008547EF00101501A0EFF04FDB1C40FD17FF
:1027E0001CC01C4089CB01452AC6EFF08FDB324567
:1027F00041016FD0FFD3B707002083A70715E5D7A6
:10280000B73600203735002081479386463E370F84
:10281000002013050529D14837030020370E00207A
:10282000854E59A8DC46DC47CC4F9053985790C54D
:1028300003A807022322B8000328470093858701D5
:102840006313B80050C3104323A407027D1610C3BE
:102850008C47D047D84B1388470090C54CC24C4397
:102860006393050150C3104323AA07007D1610C3CC
:1028700013070F16D0570C4363F3C50010C333077B
:1028800016032A974C4383AF85008CC723A6F70114
:1028900083AF850023A20F0123A405010C43D8CBED
:1028A00085050CC313074314184358576366E600A5
:1028B0001307CE172320D70198422DF799C3EFF0C5
:1028C000FF96B707002013870717044313840717E1
:1028D00091CC370900208549313B09C59307C917B9
:1028E00023A03701FD14EDF823200400B7070020D2
:1028F00083A7C717E38907EEB7E700E0116723A0B6
:10290000E7200545D5B519E5B7E700E0116723A035
:10291000E7208280EFD23FC0B707002083A787154A
:1029200041119DC3A1679387078073900730374695
:102930000000374500001306864D9305905413059B
:102940008547EF00007E01A02AC641393245814506
:10295000EFF01F90B13511E5B7E700E0116723A054
:10296000E72041016FD07FBDB707002003A787157F
:10297000B70700209387C71701C7054798C3828010
:1029800023A00700B70700201387071618431386F4
:102990000716B7370020938707295148B306070366
:1029A000B385D700884115C5C841A106BE964841E8
:1029B000C8C16314D5005441D4C1D146B306D7026F
:1029C000B697DC43D447B707002023A2D71418C218
:1029D000828015E7EFD23FB4A16793870780739099
:1029E0000730374600008565374500001306864DE1
:1029F000938525C013058547EF00A07201A07D17C0
:102A000071BFEFD25FB105E5A1679387078073902F
:102A10000730374600008565374500001306864DB0
:102A20009385C5C113058547EF00A06F01A0B707C7
:102A300000202E8483A54714E105EFF04FBC8545A7
:102A40002285EFF0FF806FD05FAFEFD2DFAC2A8737
:102A50001DE1A16793870780739007303746000018
:102A60008565374500001306864D938525C51305FA
:102A70008547452D01A0B70700209387471454438D
:102A80002E858C4303A88600D4CD8C4323A0050358
:102A900003A807008C46610823A2050103A80700CC
:102AA0009C43610823A4060198D71C4385071CC3D7
:102AB00011C27D55B285EFF0AFF96FD01FA85C450C
:102AC000DC478DE7EFD23FA5A1679387078073901E
:102AD0000730374600008565374500001306864DF0
:102AE000938525C8130585472D2D01A0D04F9453FC
:102AF00098579385870114C6D0C250436313B6001C
:102B000054C3144323A40702FD1614C3370700203F
:102B100003278715D45725EF8C47D047D84B90C54E
:102B2000D04748434CC2938547006313B50050C358
:102B3000104323AA07007D1610C337070020130790
:102B4000071610436373D60014C351473386E60259
:102B5000373700201307072932975043084690C79C
:102B6000C8C708464CC10CC6D8CB1C4301458507D5
:102B70001CC3B707002083A74714DC5763F8D700AE
:102B8000B7070020054723AEE71605458280373793
:102B900000201307473E50430846D0CF88D308464D
:102BA0004CC10CC698D7D1B7B707002083A7C7166A
:102BB0001CC1B707002083A787175CC18280EFD2B2
:102BC0009F9541111DE1A16793870780739007309E
:102BD000374600008565374500001306864D93850E
:102BE000D5CF13058547352B01A09DE1A1679387BC
:102BF0000780739007303746000085653745000031
:102C00001306864D9385E5CF13058547192B01A043
:102C10002EC62AC4EFF08F9737070020B707002091
:102C20001307471483A687171C432245B24583C761
:102C3000170599CB1C43A38807040544EFF06F9652
:102C4000228541016FD07F8F9C417D570144E387EE
:102C5000E7FE370600200326C61603280500584164
:102C60006307C80063E5E60023A00500F9B73386D3
:102C7000E640E37BF6FE958FBA979CC13537014459
:102C800075BFB7070020054723AEE7168280B70758
:102C9000002083A74717054581CBB707002003A570
:102CA00087151335150006058280EFD2DF863704BD
:102CB0000020EFF0AF8D1304C4181C40B1E7373586
:102CC00000201309054213050542EFF0AF91373597
:102CD00000209304454313054543EFF0AF90B70739
:102CE000002023A027190146B7070020C145114540
:102CF00023A29718EFF04FAC08C019C5B7450000E4
:102D000093858551EFF06FC6EFF0AF896FD0FF82EA
:102D1000EFD27F804CC108C9AA876362B602184D02
:102D2000158E0545637BE60093854700B7070020B5
:102D300003A54718EFF0AF8C01456FD01F80637576
:102D4000D6000545E3FBD5FE93854700B707002075
:102D500003A50718C5B7EFD20FFC2A84AE843289C9
:102D60000C4CA6864A86A69522855D3719E16FD060
:102D7000CFFC1C4C2285BE941C508297D5B7EFD255
:102D80008FF9B707002083A707184111AA84DC47F1
:102D90002EC6C04713054400EFF04F898347440215
:102DA000324613F7470011CBA68522856D371C509C
:102DB0002285829741016FD04FF8F99B2302F402DC
:102DC000FDB7EFD24FF53704002093060418984260
:102DD0001C4391EBB707002093874718904398C393
:102DE00090C26FD08FF55C47FD558843493FF1BFD6
:102DF000EFD2EFEF11694111B70A0020B7090020A7
:102E0000370B0020B70B00201309494F83A70A187E
:102E1000984329CBDC47814C03AC0700EFF0EFFB74
:102E2000EFF0AFFC83A789182A8493848918130ACA
:102E3000CB18636CF50288C0638F0C0283A74B1814
:102E400090431336160003250A00B3058C40EFF0BB
:102E50008FB8EFF0FF9411EDB7E700E0116723A002
:102E6000E72001A8854C014C55BFA13F80C0EFF081
:102E70003F93214C05A00146E36785FDEFF05F928B
:102E8000A2856285ED3DF5B79247B24582978247AC
:102E900063DD070003250A0001468A85EFF08F985D
:102EA00035D582472245E3C107FE22445C4895E3BD
:102EB000EFF0AFF39C40AA8C6373F500193782479B
:102EC00023A09401FD17E367FCFC8A07CA979C4383
:102ED000828713054400EFE07FF5D9BF83474402A2
:102EE0000C4C924693E717002302F4026686B695CF
:102EF0002285393D45D18347440213F7470019CB5A
:102F00001C4C924566862285BE95B1351C502285A3
:102F1000829749B7F99B2302F402CDBF834744024D
:102F2000F99B2302F402BDB783474402924593E71D
:102F300017002302F4020CCC95E1A1679387078068
:102F400073900730374600003745000013060652DD
:102F50009305903513058547E92201A0E68666862C
:102F6000E695228575333DB78347440213F7270062
:102F700045FB2285EFE0FFC631BFEFD2CFD9353315
:102F8000B707002083A7C71895E3A1679387078039
:102F9000739007303746000037450000130606528D
:102FA0009305901113058547AD2A01A0B7070020AE
:102FB000B745000037350000938707193947814628
:102FC0001306001093858553130505DFEFF0AFB7A7
:102FD0004DDD6FD08FD6B707002083A7070E3717B8
:102FE0007A0013070720B3D7E7023707002093F7CB
:102FF000F70F230BF7181307803EB387E702370755
:103000000020231AF7188280EFD24FCFB744014037
:10301000AE893289014493840480634524014A8542
:103020006FD00FD1930500042685EFE0DF997DD99D
:10303000B38789008385070026850504C205C18101
:10304000EFE07F97D9BF138701811C43B73600207B
:103050009386C6443E95636BD500B7860020938661
:10306000068063E5A60008C33E858280FD57EDBF5C
:10307000B3C7A5008D8B3307C50081E78D4763ED8E
:10308000C700AA87637EE508942185078505A38F7D
:10309000D7FEE3EBE7FE828093763500AA8789CAE4
:1030A000942185078505A38FD7FE93F63700C5BF0A
:1030B0009376C7FF138606FE63F0C70683A3050059
:1030C00083A2450083AF850003AFC50083AE050131
:1030D00003AE450103A3850183A8C501938545027D
:1030E00023A0770003A8C5FF23A2570023A4F7015C
:1030F00023A6E70123A8D70123AAC70123AC6700B1
:1031000023AE17019387470223AE07FF75B790419F
:103110009107910523AEC7FEE3EBD7FEE3E6E7F6A2
:10312000828039713EDA2ED232D436D63AD842DC99
:1031300046DE9387418122CC804326CA06CEAA84EC
:1031400009C41C4C99E32285ED290C4454102686B1
:10315000228536C6EF00F013F2406244D24421616A
:103160008280011126CA4AC806CE22CC4EC652C45D
:10317000AA842E8901C51C4D91E3E1219C4C804419
:1031800099E326857D29971700009387A73D631B48
:10319000F402C0405E24A18BB1C71C48A1C7FD59F1
:1031A000294A1C4483450900FD17B1E91CC463DDAD
:1031B00007062286A94526856120FD576308F5028A
:1031C000294535A0971700009387C73B6314F40087
:1031D0008044C9B7971700009387C736E31CF4FAF9
:1031E000C0444DBFA2852685112A55D97D55F24090
:1031F0006244D2444249B249224A056182801CC4D9
:10320000050963D70700184C63CAE70063884501C6
:103210001C401387170018C08CA361B7228626852F
:103220000520E31035F9D9B71C401387170018C0E3
:10323000294798A371B793874181AA85884315B719
:10324000011122CC26CA4AC806CE4EC6AA842E89AF
:10325000328401C51C4D91E3ED269717000093873A
:1032600067306317F406C0401C4C1CC45E24A18B5D
:10327000C1C31C48B5CF1C4808409379F90F137996
:10328000F90F1D8D5C486346F500A2852685692CE3
:1032900025E51C440505FD171CC41C4013871700B9
:1032A00018C0238037015C486388A7005E24858BA3
:1032B00081CBA9476316F900A2852685B5240DEDBB
:1032C000F24062444A85D2444249B2490561828053
:1032D000971700009387072B6314F400804469B7A5
:1032E0009717000093870726E310F4F8C044ADBF9A
:1032F000A2852685212041D17D59D9B741119387D7
:10330000418126C2844322C44AC006C62A892E842B
:1033100089C49C4C99E326852D2697170000938736
:103320006724631BF402C0400317C400931707010E
:10333000C18393F68700ADEA93F6070195EEA547A2
:103340002320F900136707045AA47D55B240224494
:103350009244024941018280971700009387872297
:103360006314F4008044C9B7971700009387871D42
:10337000E31CF4FAC0444DBF918B9DC34C5889C9DE
:10338000930744046384F5004A853123232A040209
:103390005E242322040093F7B7FD5EA41C481CC0E2
:1033A0005E2493E787005EA41C4899EB5E24130714
:1033B000002093F707286385E700A2854A85A121AD
:1033C0005E2413F717001DC35C4823240400B307D1
:1033D000F0401CCC1C480145B5FB8317C40013F713
:1033E00007082DD793E707045EA485B7898B0147AB
:1033F00091E3584818C4F9BFDE25011122CC26CA32
:1034000006CE4AC84EC613F78700AA842E8479EBED
:10341000D841634DE000B841634AE0000145F24005
:103420006244D2444249B2490561828058547DD7F2
:1034300003A904009396370123A0040063DB06066A
:1034400070485E24918B99C75C401D8E5C5899C36F
:103450003C401D8E5C540C50814626858297FD575A
:103460005A24631DF5009440F54763E8D706B70773
:1034700040208507B3D7D700858BA5C31C482322DE
:1034800004001CC09317370163D80700FD5763146D
:10349000F5009C4091E368C84C5823A02401BDDD91
:1034A000930744046384F5002685F526232A040245
:1034B000B5B70C500146854626850297FD572A86EA
:1034C000E311F5F89C40B5DF75476385E700594780
:1034D0006393E70423A0240191B7136707045AA458
:1034E0007D5535BF83A90501E38A09F203A90500CB
:1034F0008D8B23A0350133093941014791E3D84928
:1035000018C4E35D20F11C540C50CA864E862685F3
:1035100082976347A0005E2493E707045EA4C9B7BF
:10352000AA993309A940F1BF9C49B9CF011122CC16
:1035300006CE2A8411C51C4D81E72EC61922B2453C
:103540009717000093870702639BF5004C40839711
:10355000C50095C722856244F240056171BD971789
:103560000000938727026394F5000C44CDB79717AA
:103570000000938727FDE39CF5FC4C44C9BFF24053
:10358000624401450561828001458280411122C467
:1035900006C62A844EA572A5232005002322050015
:1035A000232405002322050623280500232A0500DD
:1035B000232C0500214681451305C505EFC0BFF842
:1035C00097170000938787B35CD097170000938705
:1035D000A7B51CD497170000938787B95CD49717B9
:1035E00000009387E7BB00D01CD8B24022444101C1
:1035F000828097050000938565F3A9A2411126C238
:10360000130680069384F5FFB384C4024AC02E8952
:1036100022C406C6938544073D262A8401CD232073
:10362000050023222501310508C41386840681453F
:10363000EFC07FF12285B240224492440249410109
:1036400082801C4DADE3411106C622C497070000DD
:10365000938767FA1CD59387C1819C432324050473
:1036600023260504232805046314F50085471CCD93
:103670002A841D2848C02285052808C422852D20BB
:1036800048C4484001469145113708440546A545C0
:10369000F53D48440946C945D53D85471CCCB24057
:1036A000224441018280828041119387C18126C2D8
:1036B00084434AC006C69C4C22C42A8999E32685C5
:1036C0004937938484048044DC40FD1763D60700A7
:1036D0009C40B9CF8440C5BF0317C40039E7C17708
:1036E0008507232204062320040023220400232428
:1036F00004005CC423280400232A0400232C0400B3
:10370000214681451305C405EFC0FFE3232A0402C7
:10371000232C040223240404232604042285B2401B
:10372000224492440249410182801304840671BFFD
:1037300091454A85E13588C051FDB1472320F90004
:103740000144E9BF797122D44AD052CC56CA5AC832
:103750005EC606D626D24ECE2A8AAE8A13048504C9
:103760000149054BFD5B09ECB25022544A85925445
:103770000259F249624AD24A424BB24B45618280B9
:10378000044483294400FD1963D409000040E1BFCB
:10379000DE24637BFB008397E40063877701A685C3
:1037A0005285829A3369A90093848406E9BF19710E
:1037B000A6DAAE848395E500A2DC86DE328463DB84
:1037C0000500DE2423A0060093F7070885E793078A
:1037D00000401DA0300836C6EF001023B246E34279
:1037E00005FE7247BD67F98F7977BA9793B71700CF
:1037F0009CC2F1BF930700041CC0F6506654D65417
:10380000014509618280DE25011122CC06CE26CA3F
:103810004AC8898B2E8489CF930774041CC01CC8A6
:1038200085475CC8F2406244D244424905618280C7
:1038300074003000AA84A53FA2452A89268521224A
:1038400019E98317C40013F7072069FFF19B93E779
:1038500027005EA4D1B7970700009387C7D99CD4EF
:103860005E2408C008C893E707085EA4A2475CC8A6
:10387000B24781CF8315E4002685EF00101C11C5E7
:103880005E24F19B93E717005EA45E243369F90080
:103890002316240141BFDDC583A7C5FF411122C402
:1038A00006C626C21384C5FF63D307003E94AA84CC
:1038B000EF00702097D7FF1F9387478E9C4391EFAF
:1038C0002322040097D7FF1F23AA878C2244B240EB
:1038D0002685924441016F00301E637EF40014403F
:1038E0003307D4006396E7009843DC43369718C04B
:1038F0005CC0C9BFBA87D84319C3E37DE4FE9443D3
:103900003386D700631F86001040B29694C3338677
:10391000D700E31DC7FA10435843B29694C3D8C3E7
:1039200075B76375C400B1479CC04DB71040B3066E
:10393000C4006316D70014435843B29614C058C04D
:10394000C0C369B78280011126CA93843500F198FB
:1039500006CE22CC4AC84EC6A104B14763F9F4048E
:10396000B14463E8B4042A89EF00F01497D7FF1F2D
:103970009387C78298433A8439E497D7FF1F938788
:1039800027829C4381EB81454A85352F97D7FF1FBE
:1039900023A8A780A6854A853D27FD59631B3507C7
:1039A000B1472320F9004A85EF00101129A0E3DA7E
:1039B00004FAB1471CC10145F2406244D244424975
:1039C000B249056182801C40858F63C10704AD4602
:1039D00063F6F6001CC03E9404C001A85C40631569
:1039E000870217C7FF1F232BF77A4A85EF00D00CF9
:1039F0001305B4009307440061993307F5404DDF88
:103A00003A94898F1CC04DBF5CC3C5B72287404024
:103A1000A5B7130435007198E30085FCB305A440F5
:103A20004A855525E31A35FBA5BF1C46FD171CC664
:103A300063DA0700184E63C5E700A9476394F500F1
:103A40006FF01F801C422E851387170018C28CA3AD
:103A50008280011122CC26CA4AC84EC652C406CE64
:103A60002A89AE893284B304D6007D5A6314940047
:103A7000014501A80C204E864A85453F0504E31701
:103A800045FFF2406244D2444249B249224A0561AC
:103A90008280357122CD26CB4AC94EC706CF52C58A
:103AA00056C35AC1DEDEE2DCE6DAAA89AE84328988
:103AB000368409C51C4D99E3EFF0BFB89717000095
:103AC000938747AA6397F40C83A44900DE24A18B53
:103AD000FDC39C48EDC393070002A304F1029307C2
:103AE000000302D22305F10222C6930B5002971A5B
:103AF0000000938A2AAB054C294B4A841C2099C3A9
:103B0000639E770DB30C2441638D0C00E6864A86D4
:103B1000A6854E853D3FFD57630FF51C9256E696F0
:103B200036D21C206389071CFD571309140002C8F4
:103B300002CE3ECA02CCA309010482D48345090007
:103B400015465685A92F13041900C24751E913F7EA
:103B5000070109C713070002A309E10413F787004F
:103B600009C71307B002A309E1048346090013073C
:103B7000A002638FE606F2474A8481462546182054
:103B800093051400130707FD6377E60AB5CA3ECE16
:103B900085A8971700009387E79E6395F40083A498
:103BA00089002DB7971700009387C799E390F4F227
:103BB00083A4C90021BFA6854E85EFF02FF401DD57
:103BC0007D55FA406A44DA444A49BA492A4A9A4A2F
:103BD0000A4BF65B665CD65C0D618280050439BFDA
:103BE000330555413315AC00C98F3EC82289B9B79A
:103BF000324793064700184336C6634707023ACE5A
:103C000018209307E002631DF70418309307A00201
:103C1000631BF702B2470904138747009C433AC667
:103C200063C107023ECA2DA83307E04093E727008F
:103C30003ACE3EC8F1B7B387670385462E84BA975C
:103C40003DBFFD57C5B7050402CA814681472546D9
:103C5000182093051400130707FD6374E606F9F2B4
:103C60000C200D4617150000130545940D2D11CDA0
:103C700097170000938787931D8D93070004B397D0
:103C8000A700424505045D8D2AC80C20194617156A
:103C900000001305E591130914002304B102012566
:103CA00035C197C7FFFF9387E73595E74247B2478E
:103CB0001377071009CF91073EC69257D2973ED28D
:103CC0002DBDB387670385462E84BA9751B79D07EC
:103CD000E19BA107D5B77800970600009386A6D789
:103CE00026860C084E8597000000E7000000FD576F
:103CF0002A8AE314F5FCDE2493F70704E39207EC29
:103D00001255C1B57800970600009386C6D4268662
:103D10000C084E85012AE1BF797156CA9C49BA8ABE
:103D2000984522D426D24ECE52CC06D64AD05AC876
:103D30005EC6AA892E84B284368A63D3E700BA8726
:103D40009CC00347340419C385079CC01C4093F7EB
:103D5000070281C79C4089079CC00329040013798E
:103D60006900631A0900130B9401FD5B5C449840E1
:103D7000998F634CF9041C408346340493F707027F
:103D8000B336D000A5EB13063404D2854E85829A53
:103D9000FD576303F5041C4011469840998B544429
:103DA00081446397C700B384E64063D30400814431
:103DB0001C4418486354F700998FBE940149690464
:103DC0007D5B63982405014509A885465A86D285FE
:103DD0004E85829A631E75017D55B25022549254CD
:103DE0000259F249624AD24A424BB24B4561828043
:103DF0000509ADBF3307D40013060003A301C704B0
:103E00000347540493871600A2978906A381E70409
:103E10009DBF85462286D2854E85829AE30E65FB3C
:103E2000050945B7797122D426D24AD04ECE06D69E
:103E300052CC56CA5AC8B689942D93079006328937
:103E4000AA842E8413863504638DF60263E2D706B6
:103E5000930780056386F61863EDD700638E06200E
:103E600093073004638EF60A930A24042301D404D2
:103E7000C9A0930730066385F60A93074006E395C9
:103E8000F6FE1C40084393F6070893054500C5C697
:103E90001C410CC363D807001307D002B307F040DE
:103EA000A301E4049706000093860671294765A8DC
:103EB000930700076382F61663E5D7029307E006CF
:103EC0006389F6189307F006E390F6FA0C401C435A
:103ED00013F80508138547006307080608C39C43C9
:103EE00085A893075007E383F6FE9307800763894D
:103EF000F61293073007E399F6F61C43D04181454B
:103F00009386470014C383AA07005685492E01C52E
:103F10003305554148C05C401CC8A301040461A896
:103F20001C43930A2404938647009C4314C3230133
:103F3000F4048547D5B793F607041C410CC3B9DADE
:103F4000C207C18781BF93F5050408C3C9D99E2361
:103F50001307F0066387E60E970600009386C66592
:103F60002947A30104044C400CC463C50500084064
:103F70006D9908C099E3B28A89CDB28AB3F5E70298
:103F8000FD1AB6958C212380BA00B3D5E70263F001
:103F9000E70CA147631EF7001C40858B91CB58406E
:103FA0001C4863C7E70093070003A38FFAFEFD1ABE
:103FB0003306564110C84E87CA867000A2852685F2
:103FC000EFF09FD57D5A631D450B7D55B2502254AD
:103FD00092540259F249624AD24A424B4561828068
:103FE000A382D504970600009386065D0C40084323
:103FF00013F805081C411105630D080208C313F7E7
:10400000150001C793E505020CC04147B9FB0C4000
:1040100093F5F5FD0CC0B1B79C4193E707029CC135
:1040200093078007A302F404970600009386065ABC
:1040300075BF13F8050408C3E30308FCC207C18376
:104040007DBF9706000093862657214719BFAE878C
:1040500035B794411C43CC4913F806081385470033
:104060006306080008C39C438CC339A008C393F6B9
:1040700006049C43F5DA8EA323280400B28A25BFE8
:1040800014485686CA8526858299E30045F51C406A
:10409000898B8DE7B2474844E35AF5F23E853DB738
:1040A00085465686CA8526858299E30065F3050A0A
:1040B0005C443247998FE345FAFEE9BF014A930A0F
:1040C00094017D5BF5B7411122C42A842E8597F7B0
:1040D000FF1F23AD073606C6EFE0FFF6FD57631955
:1040E000F50097F7FF1F938767369C4391C31CC069
:1040F000B240224441018280411122C42E84839522
:10410000E50006C65D2A634905007C48AA977CC87D
:10411000B2402244410182805E247D777D17F98F71
:104120005EA4FDB7DE25011122CC26CA4AC84EC6C0
:1041300006CE93F70710AA842E843289B68991C7D8
:104140008395E500894601460D225E247D777D1723
:10415000F98F5EA48315E4006244F240CE864A865D
:10416000B24942492685D244056125A8411122C49D
:104170002E848395E50006C6CD28FD575A24631A80
:10418000F500FD77FD17F98F5EA4B240224441018E
:1041900082808567D98F5EA468C8C5BF8395E50016
:1041A00025A8411122C42A842E85B285368697F728
:1041B000FF1F23AD072806C6EFE01FE5FD57631973
:1041C000F50097F7FF1F938767289C4391C31CC096
:1041D000B240224441018280411122C42A842E85AA
:1041E00097F7FF1F23A4072606C61122FD57631960
:1041F000F50097F7FF1F938767259C4391C31CC069
:10420000B240224441018280411122C42A842E8579
:10421000B28597F7FF1F23AB072206C6CD20FD57B7
:104220006319F50097F7FF1F938747229C4391C3BB
:104230001CC0B240224441018280411122C42A8420
:104240002E8597F7FF1F23A3072006C6C920FD5719
:104250006319F50097F7FF1F9387471F9C4391C38E
:104260001CC0B240224441018280411122C42A84F0
:104270002E85B285368697F7FF1F23A9071C06C631
:104280007928FD576319F50097F7FF1F9387071CDF
:104290009C4391C31CC0B24022444101828093F5EB
:1042A000F50F2A966314C500014582801C21E38E18
:1042B000B7FE0505C5BF82808280411122C42A84D1
:1042C0002E85B285368697F7FF1F23A1071806C6ED
:1042D000B928FD576319F50097F7FF1F9387071754
:1042E0009C4391C31CC0B240224441018280930789
:1042F000800517F7FF1F232BF7147D558280930746
:10430000800517F7FF1F2323F7147D55828093073D
:10431000800517F7FF1F232BF712014582809307B3
:10432000800517F7FF1F2323F7127D55828093071F
:10433000800517F7FF1F232BF7107D5582800000A3
:104340005345545F4B4559204953205055534845D8
:1043500044210D005345545F4B4559204953204C8F
:104360004F4E4720505553484544210D0000000052
:104370007265636569766520726573746F72652016
:104380006F726465723A272573270D0A00000000DA
:104390006F72646572206572726F720D00000000AA
:1043A000726563656976652072616E646F6D206FFA
:1043B000726465723A272573270D0A005379737466
:1043C000656D436C6B3A25640D0A000043686970A3
:1043D00049443A253038780D0A0000005631302E15
:1043E000342E36004672656552544F53204B657229
:1043F0006E656C2056657273696F6E3A25730D0A8F
:10440000000000006C65645F7461736B0000000065
:104410006B65795F7461736B000000006F72646597
:10442000725F7461736B0000526563656976655FE6
:104430007461736B0000000073686F756C646E27A5
:10444000742072756E206174206865726521210088
:104450002E2E2F4672656552544F532F706F727413
:1044600061626C652F4D656D4D616E672F6865618A
:10447000705F342E63000000657272206174206CDE
:10448000696E65202564206F662066696C65202250
:104490002573222E200D0A20000000002E2E2F460C
:1044A00072656552544F532F706F727461626C6500
:1044B0002F4743432F524953432D562F706F727429
:1044C0002E6300002E2E2F4672656552544F532FD7
:1044D00071756575652E63002E2E2F4672656552C7
:1044E000544F532F7461736B732E630049444C45D2
:1044F00000000000DC2E0000DC2E00001C2F00005D
:10450000282F0000682F0000DC2E0000DC2E0000A9
:104510001C2F0000282F0000546D72510000000075
:104520002E2E2F4672656552544F532F74696D6558
:1045300072732E6300000000546D72205376630086
:10454000000000000000000000000000000000006B
:10455000000000000000000000000000000000005B
:10456000000000000000000000000000000000004B
:10457000000000000000000000000000000000003B
:10458000000000000000000000000000000000002B
:10459000000000000000000000000000000000001B
:1045A000232D302B20000000686C4C0065666745A9
:1045B00046470000303132333435363738394142DE
:1045C000434445460000000030313233343536373D
:0C45D00038396162636465660000000019
:1045DC0004000000050000000600000007000000B9
:1045EC00400000005000000060000000700000005F
:1045FC000004000000050000000600000007000099
:10460C00004000000050000000600000007000003E
:10461C000000040000000500000006000000070078
:10462C00000040000000500000006000000070001E
:10463C000000000000000000010203040607080946
:10464C00000000000102030401020304060708092C
:10465C00000000006045000080450000404500005F
:10466C00000000000000000000000000000000003E
:10467C00000000000000000000000000000000002E
:10468C00000000000000000000000000000000001E
:10469C00000000000000000000000000000000000E
:1046AC0000000000000000000000000000000000FE
:1046BC0000D8B80502040608AAAAAAAA0E0000008F
:1046CC004C3400208000002000800020800000205E
:00000001FF
